:020000040000FA
:10100000D88A000E956ED89AFF0E936EF19E0F0E41
:10101000C16ED8908150236E010E235CD8B418ECB9
:1010200008F0020E235CD8B421EC08F009EF08F0B8
:10103000D890030E836E8336D8A01BEF08F0D890AB
:101040001200D890C00E836E8332D8A024EF08F02F
:10105000D89012003E0E226EFF0E206EFF0E216E03
:10106000212E30EF08F0202E2EEF08F0222E2CEF4C
:0410700008F0120072
:020000040030CA
:04000000C030DFFF2E
:02000500FB9F5F
:06000800FFFFFFFFFFFFF8
:00000001FF
